:020000040000FA
:1000000011201E30A1004630A0001430A200A30928
:10001000030118205720572057205720572026200B
:1000200000288316F0308600831200308600080016
:10003000372022082002031C1F20412008003C20FA
:10004000A20A22082002031D1F28080021082202FC
:10005000031C2C2046200800A20323183420220869
:100060002102031D2C2808000430A202080083127C
:1000700006145120061008008312861451208610A1
:1000800008008312061551200611080083128615F8
:10009000512086110800FA30A4000000A40B4D285E
:1000A0000800FA30A5004B20A50B532808000430A7
:0A00B000A6005120A60B59280800F5
:0400BA0000340034DA
:02400E00103F61
:00000001FF
