:020000040000FA
:1000000011201E30A1004630A0001430A200A30928
:10001000030118205C205C205C205C205C202620F2
:1000200000288316F0308600831200308600080016
:1000300037202208200203181F20442008003E20F9
:10004000A20A22082002031D1F28080021082202FC
:1000500003182C2049200800A2032318342022086A
:100060002102031D2C2808000430A202080083127C
:1000700006145620562056200610080083128614B7
:100080005620562086100800831206155C200611A3
:100090000800831286155620562056208611080027
:1000A000FA30A4000000A40B52280800FA30A50082
:1000B0005020A50B582808000430A6005620A60B97
:0400C0005E280800AE
:0400C40000340034D0
:02400E00103F61
:00000001FF
